:100000000C9446000C9463000C9463000C94630001
:100010000C9463000C9463000C9463000C946300D4
:100020000C9463000C9463000C9463000C946300C4
:100030000C9463000C9463000C9463000C946300B4
:100040000C9463000C9463000C9463000C946300A4
:100050000C9463000C9463000C9463000C94630094
:100060000C9463000C9463000C9463000C94630084
:100070000C9463000C9463000C9463000C94630074
:100080000C9463000C9463000C94630011241FBE55
:10009000CFEFD0E1DEBFCDBF16E0A0E0B1E0E8E4F5
:1000A000F9E000E00BBF02C007900D92A43AB1073F
:1000B000D9F716E0A4EAB6E001C01D92A63AB1074E
:1000C000E1F70C9465000C940000CFEED0E1DEBFA8
:1000D000CDBF6E010894C11CD11C00E1E0E0F1E04D
:1000E000D60101900D920A95E1F70E94AF000E949F
:1000F000F00080E897E09093110180931001109236
:10010000A5061092A4060E94C502BB2489818823FB
:1001100029F120E030E08601020F131F7901EE0C77
:10012000FF1CEE0CFF1CEE0CFF1C20E0F8014081D0
:100130006CE38E2D825E0E943E0321E0D8014C913B
:100140006AE08E2D8B5F0E943E03B3942B2D3327E4
:10015000F601E20FF31FE080EE20E9F6FFCFC6982C
:10016000BE9AC29ABA9AC098B89AC198B99AC39AD4
:10017000C79ABF9A21E52DB981E08EB98EB1089555
:100180008FB9779BFECF0895C09A0000C09808955C
:10019000982F84E78FB9779BFECF1FB8779BFECF50
:1001A0009FB9779BFECFC09A0000C0980895982F02
:1001B00086E78FB9779BFECF9FB9779BFECF6FB94C
:1001C000779BFECFC09A0000C09808959C01832FB2
:1001D00099278FB9779BFECF2FB9779BFECF0895D4
:1001E0004F925F926F927F928F929F92AF92BF9247
:1001F000CF92DF92FF920F931F93CF93DF93CDB7F0
:10020000DEB7CA55D0400FB6F894DEBF0FBECDBFE3
:1002100016E05E010894A11CB11CE2E5F6E0D501F0
:10022000512E01900D925A94E1F79CE0AE01495F86
:100230005F4FE8E5F6E0DA01492E01900D924A940D
:10024000E1F7F2E5CF2ED12CCC0EDD1E73E0D60106
:100250007C936EE0F6016183BE016C5A7F4FDB0137
:100260001C92FB0191838DE28283BFE1B383EAE5B7
:100270006E2E712C6C0E7D1EFDE0D301FC9338E5D3
:10028000832E912C8C0E9D1EF401108306E10183B8
:100290008E010D5E1F4F35E1E4E6F6E0D8010190D6
:1002A0000D923A95E1F728E2422E512C4C0E5D1E3C
:1002B0009AE229E736E0F201D9010D9001929A9570
:1002C000E1F7C698C09AC79AEAEFF0E03197F1F7E4
:1002D000C69AA4ECB9E01197F1F7C09884E78FB9FA
:1002E000779BFECF1FB8779BFECF1FB8779BFECFC3
:1002F000C09A0000C09826E72FB9779BFECF1FB8A1
:10030000779BFECF31E03FB9779BFECFC09A0000CC
:10031000C09820E0822F94E7F92E36E7F501E20F2E
:10032000F11DE081FFB8779BFECF1FB8779BFECF12
:10033000EFB9779BFECFC09A0000C098FA01E80F92
:10034000F11D8F5F9081FA01E80FF11D8F5FE08151
:100350003FB9779BFECF9FB9779BFECFEFB9779BD5
:10036000FECFC09A0000C0982F5F2630B8F220E080
:10037000822F34E746E7F601E20FF11DE0813FB935
:10038000779BFECF1FB8779BFECFEFB9779BFECF51
:10039000C09A0000C098FB01E80FF11D8F5F9081AB
:1003A000FB01E80FF11D8F5FE0814FB9779BFECF16
:1003B0009FB9779BFECFEFB9779BFECFC09A000025
:1003C000C0982F5F2230B8F220E0822F34E746E752
:1003D000F301E20FF11DE0813FB9779BFECF1FB81B
:1003E000779BFECFEFB9779BFECFC09A0000C098F5
:1003F000F401E80FF11D8F5F9081F401E80FF11D0A
:100400008F5FE0814FB9779BFECF9FB9779BFECF7F
:10041000EFB9779BFECFC09A0000C0982F5FC1F262
:1004200020E0822F44E736E7F801E20FF11DE0817A
:100430004FB9779BFECF1FB8779BFECFEFB9779B65
:10044000FECFC09A0000C098F201E80FF11D8F5F47
:100450009081F201E80FF11D8F5FE0813FB9779B3A
:10046000FECF9FB9779BFECFEFB9779BFECFC09AA7
:100470000000C0982F5F2531B8F244E74FB9779B51
:10048000FECF1FB8779BFECF57E05FB9779BFECFBB
:10049000C09A0000C09806E70FB9779BFECF1FB83F
:1004A000779BFECF15E01FB9779BFECFC09A000067
:1004B000C098F4E7FFB9779BFECF1FB8779BFECFBC
:1004C000B7E0BFB9779BFECFC09A0000C09886E71F
:1004D0008FB9779BFECF1FB8779BFECF95E29FB970
:1004E000779BFECFC09A0000C09864E76FB9779BF6
:1004F000FECF1FB8779BFECF77E07FB9779BFECF0B
:10050000C09A0000C098A6E7AFB9779BFECF1FB88E
:10051000779BFECF27E22FB9779BFECFC09A0000D2
:10052000C09834E73FB9779BFECF1FB8779BFECFCB
:10053000E7E0EFB9779BFECFC09A0000C09846E78E
:100540004FB9779BFECF1FB8779BFECF57E35FB9BC
:10055000779BFECFC09A0000C098C09AC65ADF4F62
:100560000FB6F894DEBF0FBECDBFDF91CF911F91C4
:100570000F91FF90DF90CF90BF90AF909F908F90A2
:100580007F906F905F904F900895BC01C09884E772
:100590008FB9779BFECF1FB8779BFECF26E12FB98F
:1005A000779BFECFC09A0000C09836E73FB9779B93
:1005B000FECF43E84FB9779BFECF1FB8779BFECFA6
:1005C000C09A0000C09854E75FB9779BFECF1FB870
:1005D000779BFECF97E19FB9779BFECFC09A000033
:1005E000C098A6E7AFB9779BFECFBFEABFB9779BAC
:1005F000FECF1FB8779BFECFC09A0000C098E4E7FB
:10060000EFB9779BFECF1FB8779BFECFF1E2FFB922
:10061000779BFECFC09A0000C09886E78FB9779B82
:10062000FECF1FB8779BFECF1FB8779BFECFC09A37
:100630000000C09824E72FB9779BFECF1FB8779BA7
:10064000FECF32E23FB9779BFECFC09A0000C09840
:1006500046E74FB9779BFECF20E030E0472F552784
:100660004FB9779BFECF6FB9779BFECF2F5F3F4F80
:100670008AE5203C3807A0F3C09A0895EF92FF92D4
:100680000F931F93CF93DF93582F342F422FC0988F
:10069000213009F4BDC084E78FB9779BFECF1FB826
:1006A000779BFECF05E00FB9779BFECFC09A000085
:1006B000C09816E71FB9779BFECF1FB8779BFECF78
:1006C00028E32FB9779BFECFC09A0000C09874E74B
:1006D0007FB9779BFECF1FB8779BFECF97E19FB97D
:1006E000779BFECFC09A0000C098952F995FA6E730
:1006F000AFB9779BFECF9FB9779BFECF5FB9779B52
:10070000FECFC09A0000C098B4E7BFB9779BFECF78
:100710001FB8779BFECFC6E1CFB9779BFECFC09ABB
:100720000000C098962F935FE6E7EFB9779BFECF66
:100730009FB9779BFECF6FB9779BFECFC09A000021
:10074000C098F4E7FFB9779BFECF1FB8779BFECF29
:1007500081E28FB9779BFECFC09A0000C09806E770
:100760000FB9779BFECF5FB9779BFECF6FB9779BB1
:10077000FECFC09A0000C09854E75FB9779BFECFC8
:100780001FB8779BFECF62E26FB9779BFECFC09A0E
:100790000000C09816E71FB9779BFECFB0E0E32EAC
:1007A000FF24CEE0D0E0EC9E8001ED9E100DFC9E7B
:1007B000100D112422E1E22E21E0F22EE00EF11EB6
:1007C000C091A406D091A50620911001309111018D
:1007D000413009F4ABC0F801EB1BF109E15AF040DC
:1007E000E081A0E857E0FE2FFA2309F495C0BE018E
:1007F0008D2F99278FB9779BFECF6FB9779BFECF4F
:10080000A695515057FFEFCFBF5FBE3008F394C09D
:1008100024E72FB9779BFECF1FB8779BFECF75E0FB
:100820007FB9779BFECFC09A0000C09896E79FB92A
:10083000779BFECF1FB8779BFECFA0E3AFB9779B26
:10084000FECFC09A0000C098B4E7BFB9779BFECF37
:100850001FB8779BFECFC6E1CFB9779BFECFC09A7A
:100860000000C098952F995FE6E7EFB9779BFECF20
:100870009FB9779BFECF5FB9779BFECFC09A0000F0
:10088000C098F4E7FFB9779BFECF1FB8779BFECFE8
:1008900087E18FB9779BFECFC09A0000C098962F52
:1008A000935F06E70FB9779BFECF9FB9779BFECF8B
:1008B0006FB9779BFECFC09A0000C09814E71FB9AC
:1008C000779BFECF1FB8779BFECF21E22FB9779B96
:1008D000FECFC09A0000C09876E77FB9779BFECF25
:1008E0006FB9779BFECF5FB9779BFECFC09A0000B0
:1008F000C09854E75FB9779BFECF1FB8779BFECFB8
:1009000062E26FB9779BFECFC09A0000C09896E76D
:100910009FB9779BFECF42CFB901832F99278FB91B
:10092000779BFECF6FB9779BFECF6ACFF701EB0FB6
:10093000F11DE05CF14054CFC09ADF91CF911F913F
:080940000F91FF90EF90089564
:10094800677275656E657320446973706C617900B0
:10095800FFFF000000000000000000000000000091
:10096800000000183C3C3C181800181800000066ED
:100978006666240000000000000000000000006C13
:100988006CFE6C6C6CFE6C6C00000018187CC6C2A7
:10099800C07C0686C67C18180000000000C2C60C81
:1009A800183066C60000000000386C6C3876DCCC65
:1009B800CC76000000181818300000000000000075
:1009C80000000000000C183030303030180C0000E7
:1009D80000000030180C0C0C0C0C18300000000043
:1009E800000000663CFF3C660000000000000000BC
:1009F8000018187E18180000000000000000000011
:100A0800000000181818300000000000000000FE68
:100A180000000000000000000000000000000000CE
:100A28001818000000000002060C183060C0800092
:100A38000000000000386CC6C6D6C6C66C38000078
:100A480000000018387818181818187E00000000E0
:100A5800007CC6060C183060C6FE00000000007C52
:100A6800C606063C0606C67C00000000000C1C3CBE
:100A78006CCCFE0C0C1E0000000000FEC0C0C0FCC8
:100A88000606C67C00000000003860C0C0FCC6C670
:100A9800C67C0000000000FEC6060C18303030305E
:100AA80000000000007CC6C6C67CC6C6C67C000026
:100AB8000000007CC6C6C67E06060C780000000052
:100AC80000001818000000181800000000000000BE
:100AD800181800000018183000000000000C18302A
:100AE80060C06030180C00000000000000007E00AC
:100AF800007E000000000000006030180C060C1892
:100B0800306000000000007CC6C60C1818001818D9
:100B180000000000007CC6C6DEDEDEDCC07C000013
:100B280000000010386CC6C6FEC6C6C6000000002D
:100B380000FC6666667C666666FC00000000003C99
:100B480066C2C0C0C0C2663C0000000000F86C6607
:100B5800666666666CF80000000000FE66626878EB
:100B6800686266FE0000000000FE666268786860E1
:100B780060F000000000003C66C2C0C0DEC6663AF5
:100B88000000000000C6C6C6C6FEC6C6C6C600002F
:100B98000000003C181818181818183C000000002D
:100BA800001E0C0C0C0C0CCCCC780000000000E6ED
:100BB800666C6C786C6C66E60000000000F06060A3
:100BC8006060606266FE0000000000C6EEFED6C6E9
:100BD800C6C6C6C60000000000C6E6F6FEDECEC6E3
:100BE800C6C600000000007CC6C6C6C6C6C6C67C0F
:100BF8000000000000FC6666667C606060F0000033
:100C08000000007CC6C6C6C6C6D6DE7C0E00000044
:100C180000FC6666667C6C6666E600000000007C88
:100C2800C6C660380CC6C67C00000000007E7E5A2E
:100C380018181818183C0000000000C6C6C6C6C61A
:100C4800C6C6C67C0000000000C6C6C6C6C6C66CBE
:100C580038100000000000C6C6C6C6D6D6FE6C6CAA
:100C68000000000000C6C6C67C387CC6C6C60000A8
:100C7800000000666666663C1818183C0000000014
:100C880000FEC68C183060C2C6FE00000000003CA2
:100C9800303030303030303C000000000080C0E0A0
:100CA80070381C0E060200000000003C0C0C0C0CF6
:100CB8000C0C0C3C000010386CC600000000000052
:100CC800000000000000000000000000000000001C
:100CD80000FF0030180C00000000000000000000B9
:100CE800000000000000780C7CCCCC7600000000EE
:100CF80000E06060786C6666667C000000000000BA
:100D080000007CC6C0C0C67C00000000001C0C0CA3
:100D18003C6CCCCCCC7600000000000000007CC607
:100D2800FEC0C67C00000000001C3632307C30302B
:100D38003078000000000000000076CCCCCC7C0CA1
:100D4800CC78000000E060606C76666666E60000BD
:100D580000000018180038181818183C0000000087
:100D6800000606000E0606060666663C000000E061
:100D78006060666C786C66E6000000000038181841
:100D880018181818183C0000000000000000ECFEBD
:100D9800D6D6D6D60000000000000000DC666666E5
:100DA800666600000000000000007CC6C6C6C67C5F
:100DB8000000000000000000DC6666667C6060F0F1
:100DC80000000000000076CCCCCC7C0C0C1E00008F
:100DD80000000000DC76666060F0000000000000A3
:100DE80000007CC6701CC67C00000000001030307B
:100DF800FC303030361C0000000000000000CCCC75
:100E0800CCCCCC760000000000000000C6C6C66C42
:100E180038100000000000000000C6C6D6D6FE6CE0
:100E28000000000000000000C66C38386CC60000E6
:100E3800000000000000C6C6C6C67E060C7800008A
:100E480000000000FECC183066FE00000000000E16
:100E5800181818701818180E000000000018181834
:100E68001818181818180000000000701818180E24
:100E78001818187000000076DC0000000000000060
:100E880000000000000000000010386CC6C6FE001C
:100E980000000702040C0D0E000004000000000111
:100EA80006161010010F0B11060514151617203021
:100EB800313233343536373A3B0215000000000032
:100EC8000000000030AF0000008300AF0000000009
:100ED80000040002070700000507030707000712C0
:040EE80000000900FD
:00000001FF
